:100000000C9435000C945D000C945D000C945D0024
:100010000C945D000C945D000C945D000C945D00EC
:100020000C945D000C945D000C945D000C945D00DC
:100030000C945D000C945D000C945D000C945D00CC
:100040000C945D000C945D000C94FA020C94D402A4
:100050000C945D000C945D000C945D000C945D00AC
:100060000C945D000C945D002C0311241FBECFEF97
:10007000D8E0DEBFCDBF23E0AAEEB2E001C01D9202
:10008000AB38B207E1F712E0A0E0B1E0ECE0F0E15C
:1000900002C005900D92AA3EB107D9F710E0C5E362
:1000A000D0E004C02197FE010E940C06C433D107A2
:1000B000C9F70E9459030C9404080C940000AF92F5
:1000C000BF92CF92DF92EF92FF920F931F93CF9345
:1000D000DF936C017B018B01040F151FEB015E01A7
:1000E000AE18BF08C017D10759F06991D601ED913C
:1000F000FC910190F081E02DC6010995892B79F7DB
:10010000C501DF91CF911F910F91FF90EF90DF908C
:10011000CF90BF90AF900895FC01538D448D252F53
:1001200030E0842F90E0821B930B541710F0CF9691
:10013000089501970895FC01918D828D981761F0C3
:10014000A28DAE0FBF2FB11D5D968C91928D9F5FDA
:100150009F73928F90E008958FEF9FEF0895FC01B9
:10016000918D828D981731F0828DE80FF11D858D6C
:1001700090E008958FEF9FEF0895FC01918D228DFF
:10018000892F90E0805C9F4F821B91098F73992784
:100190000895FC01A48DA80FB92FB11DA35ABF4F1C
:1001A0002C91848D90E001968F739927848FA68976
:1001B000B7892C93A089B1898C91837080648C93CA
:1001C000938D848D981306C00288F389E02D808179
:1001D0008F7D80830895EF92FF920F931F93CF93AB
:1001E000DF93EC0181E0888F9B8D8C8D98131AC072
:1001F000E889F989808185FF15C09FB7F894EE8959
:10020000FF896083E889F9898081837080648083B5
:100210009FBF81E090E0DF91CF911F910F91FF9000
:10022000EF900895F62E0B8D10E00F5F1F4F0F73A8
:100230001127E02E8C8D8E110CC00FB607FCFACF63
:10024000E889F989808185FFF5CFCE010E94C90038
:10025000F1CFEB8DEC0FFD2FF11DE35AFF4FF08234
:100260009FB7F8940B8FEA89FB8980818062CFCF9A
:10027000CF93DF93EC01888D8823B9F0AA89BB89DD
:10028000E889F9898C9185FD03C0808186FD0DC0C8
:100290000FB607FCF7CF8C9185FFF2CF808185FFE9
:1002A000EDCFCE010E94C900E9CFDF91CF91089533
:1002B0005A985B985C985F9817BC18BC08955A9A36
:1002C0005B985C985F9A87BD88BD08955A985B9A41
:1002D0005C9A5F9887BD88BD08955A9A5B985C9A2E
:1002E0005F9887BD869588BD08955A9A5B985C9AF9
:1002F0005F98982F969597BD88BD08955A985B9AF8
:100300005C985F9A87BD88BD08955A9A5B985C9AFD
:100310005F9887BD88BD089542E050E068E171E0D4
:100320008AEE92E00C945F00CF93DF93FC01019082
:100330000020E9F73197AF01481B590BBC018AEE49
:1003400092E00E945F00EC010E948C018C0F9D1FC7
:10035000DF91CF9108950C9494010F931F93CF9345
:10036000DF93EC0188819981009759F02A813B81C4
:100370002617370730F081E0DF91CF911F910F9161
:1003800008958B016F5F7F4F0E943707009759F0E8
:10039000998388831B830A832C813D81232B59F702
:1003A000FC011082E8CF80E0E7CFEF92FF920F933D
:1003B0001F93CF93DF936115710541F480E0DF91C6
:1003C000CF911F910F91FF90EF9008954115510526
:1003D000B1F07B01EC010C811D81040F151FB801E8
:1003E0000E94AD01882351F3288139818C819D8140
:1003F000B701820F931F0E94FD071D830C8381E0CC
:10040000DECFCF93DF93EC0188819981009711F0C3
:100410000E94AE06198218821D821C821B821A82DB
:10042000DF91CF910895CF92DF92EF92FF920F93D9
:100430001F93CF93DF93CDB7DEB761970FB6F894D4
:10044000DEBF0FBECDBF8C01CB01F801118210823F
:1004500013821282158214824AE09E012F5F3F4F61
:100460006901B9010E949705F60101900020E9F7A2
:1004700031977F01EC18FD08B701C8010E94AD015A
:10048000811112C0C8010E94010261960FB6F89452
:10049000DEBF0FBECDBFDF91CF911F910F91FF90B7
:1004A000EF90DF90CF900895F801F582E482B601D5
:1004B000808191810E94FD07E8CFCF93DF93EC010B
:1004C000FB0144815581608171810E94D5018111B8
:1004D00003C0CE010E940102CE01DF91CF910895A9
:1004E000FC0180819181009711F00C94AE06089573
:1004F00038B141E050E0FA0102C0EE0FFF1F8A95CB
:10050000E2F7CF012E2F2095322338B9FAE0FA9581
:10051000F1F700C098B1982B98B935E33A95F1F707
:10052000000088B1822388B910928500109284005F
:100530009A0102C0220F331F6A95E2F786B190E05C
:1005400082239323892B51F480918400909185001C
:1005500082369A4E98F390E080E0089540918400AE
:10056000509185005695479586B190E0822393235C
:10057000892B61F0809184009091850096958795F4
:10058000841B950B8133954778F3E5CF80918400E8
:100590009091850096958795841B950B67E370E095
:1005A0000E94F805CB0108951F920F920FB60F928B
:1005B00011242F933F934F935F936F937F938F9368
:1005C0009F93AF93BF93EF93FF938AEE92E00E94C5
:1005D000C900FF91EF91BF91AF919F918F917F9152
:1005E0006F915F914F913F912F910F900FBE0F90A0
:1005F0001F9018951F920F920FB60F9211242F93F0
:100600008F939F93EF93FF93E091FA02F091FB0297
:100610008081E0910003F091010382FD1BC0908175
:10062000809103038F5F8F7320910403821741F041
:10063000E0910303F0E0E651FD4F958F80930303B3
:10064000FF91EF919F918F912F910F900FBE0F907F
:100650001F9018958081F4CFEAEEF2E013821282A7
:1006600088EE93E0A0E0B0E084839583A683B7830F
:100670008AE091E09183808385EC90E09587848780
:1006800084EC90E09787868780EC90E0918B808B5C
:1006900081EC90E0938B828B82EC90E0958B848B45
:1006A00086EC90E0978B868B118E128E138E148EB3
:1006B0000895CF93DF93CDB7DEB768970FB6F89460
:1006C000DEBF0FBECDBFE091FA02F091FB0212E057
:1006D0001083E091F602F091F7021082E091F802A7
:1006E000F091F9028FEC808310920203E091FE02F8
:1006F000F091FF0286E08083E091FC02F091FD0220
:10070000808180618083E091FC02F091FD02808114
:1007100088608083E091FC02F091FD028081806816
:100720008083E091FC02F091FD0280818F7D8083C7
:100730008BE191E00E94940110928000109381005F
:100740001092850010928400389A3A9A3C9A39980F
:100750003B983D98529A539A559A549A579A569A5A
:1007600083EA84BD15BD0E9458012FEF83ED90E30D
:10077000215080409040E1F700C0000061E080E03F
:100780000E9478028C0163E082E00E9478027C0182
:1007900065E084E00E947802BC01CE0143960E948D
:1007A0001302B701CE010D960E941302B801CE01CB
:1007B00007960E9413021A8219821C821B821E82D3
:1007C0001D8266E070E0CE0101960E94AD018111AC
:1007D000A3C1CE0101960E940102BE01695F7F4F55
:1007E000CE0101960E945D028C0148E050E06EE36C
:1007F00071E00E94D501811103C0C8010E9401026D
:10080000BE01635F7F4FC8010E945D028C0148E01A
:1008100050E067E471E00E94D501811103C0C80176
:100820000E940102BE016D5E7F4FC8010E945D0201
:10083000FC0144815581608171818AEE92E00E94C1
:100840005F000E948C01CE0101960E947002CE01D1
:1008500007960E947002CE010D960E947002CE0192
:1008600043960E947002FFEF23ED80E3F150204099
:100870008040E1F700C0000080E591E00E94AB01FC
:1008800088EC0E9485019FEFEBE7F2E99150E04090
:10089000F040E1F700C000000E9458012FEF83ED07
:1008A00090E3215080409040E1F700C000008EE6C8
:1008B00091E00E94AB0188E70E948501EFEFFBE722
:1008C00022E9E150F0402040E1F700C000000E9422
:1008D00058018FEF93EDE0E381509040E040E1F765
:1008E00000C000008AE891E00E94AB0188EC0E9401
:1008F0007E01FFEF2BE782E9F15020408040E1F7D5
:1009000000C000000E9458019FEFE3EDF0E391501A
:10091000E040F040E1F700C0000089EA91E00E9469
:10092000AB0188E70E947E012FEF8BE792E921500F
:1009300080409040E1F700C000000E945801EFEFB6
:10094000F3ED20E3E150F0402040E1F700C000006B
:1009500086EC91E00E94AB0188EC0E9475018FEF5C
:100960009BE7E2E981509040E040E1F700C00000E1
:100970000E945801FFEF23ED80E3F15020408040BA
:10098000E1F700C0000083EE91E00E94AB0188E730
:100990000E9475019FEFEBE7F2E99150E040F040D3
:1009A000E1F700C000000E9458012FEF83ED90E3B3
:1009B000215080409040E1F700C000008EEF91E0B0
:1009C0000E94AB0188EC0E946D01EFEFFBE722E98A
:1009D000E150F0402040E1F700C000000E945801C3
:1009E0008FEF93EDE0E381509040E040E1F700C0ED
:1009F00000008AE192E00E94AB0188E70E946D014D
:100A0000FFEF2BE782E9F15020408040E1F700C082
:100A100000000E9458019FEFE3EDF0E39150E040A9
:100A2000F040E1F700C0000084E392E00E94AB01D7
:100A300088EC0E9466012FEF8BE792E921508040FD
:100A40009040E1F700C000000E945801EFEFF3ED85
:100A500020E3E150F0402040E1F700C0000082E5D3
:100A600092E00E94AB0188E70E9466018FEF9BE74E
:100A7000E2E981509040E040E1F700C000000E94B0
:100A80005801FFEF23ED80E3F15020408040E1F773
:100A900000C000008EE692E00E94AB0188EC0E944C
:100AA0005F019FEFEBE7F2E99150E040F040E1F7A2
:100AB00000C000000E9458012FEF83ED90E3215009
:100AC00080409040E1F700C000008BE892E00E9477
:100AD000AB0188E70E945F01EFEFFBE722E9E150FD
:100AE000F0402040E1F700C000000E9458018FEF65
:100AF00093EDE0E381509040E040E1F700C000005A
:100B000086EA92E00E94AB01FFEF23E284EFF1500E
:100B100020408040E1F730CE86E090E09E838D83D8
:100B200067E371E089819A810E94FD0756CEBB2759
:100B3000FB015527AA27880F991FAA1FA41710F099
:100B4000A41B83955051B9F7A05DAA3308F0A95DA5
:100B5000A193009779F7B111B1931192CB010C9445
:100B6000B105DC01FC01672F71917723E1F7329722
:100B700004C07C916D9370836291AE17BF07C8F378
:100B800008952F923F924F925F926F927F928F9231
:100B90009F92AF92BF92CF92DF92EF92FF920F930C
:100BA0001F93CF93DF93CDB7DEB7CA1BDB0B0FB616
:100BB000F894DEBF0FBECDBF09942A8839884888D3
:100BC0005F846E847D848C849B84AA84B984C88469
:100BD000DF80EE80FD800C811B81AA81B981CE0F60
:100BE000D11D0FB6F894DEBF0FBECDBFED01089545
:100BF000AA1BBB1B51E107C0AA1FBB1FA617B70743
:100C000010F0A61BB70B881F991F5A95A9F780955E
:100C10009095BC01CD010895EE0FFF1F0590F49152
:100C2000E02D09940F931F93CF93DF9382309105AA
:100C300010F482E090E0E0918903F0918A0330E0C3
:100C400020E0B0E0A0E0309799F42115310509F4D7
:100C50004AC0281B390B24303105D8F58A819B8185
:100C60006115710589F1FB0193838283FE0111C037
:100C7000408151810281138148175907E0F04817DC
:100C8000590799F4109761F012960C9312971396E6
:100C90001C933296CF01DF91CF911F910F91089550
:100CA0000093890310938A03F4CF2115310551F085
:100CB0004217530738F0A901DB019A01BD01DF019A
:100CC000F801C1CFEF01F9CF90938A038093890394
:100CD000CDCFFE01E20FF31F819391932250310992
:100CE00039832883D7CF2091870330918803232B22
:100CF00041F4209102013091030130938803209345
:100D0000870320910001309101012115310541F443
:100D10002DB73EB74091040150910501241B350BBE
:100D2000E0918703F0918803E217F307A0F42E1BEC
:100D30003F0B2817390778F0AC014E5F5F4F24173F
:100D4000350748F04E0F5F1F509388034093870389
:100D5000819391939FCFF0E0E0E09CCFCF93DF931E
:100D60000097E9F0FC01329713821282A091890367
:100D7000B0918A03ED0130E020E01097A1F42081CA
:100D80003181820F931F20918703309188032817A8
:100D9000390709F061C0F0938803E0938703DF917E
:100DA000CF910895EA01CE17DF07E8F54A815B810C
:100DB0009E0141155105B1F7E901FB83EA83499191
:100DC0005991C40FD51FEC17FD0761F48081918103
:100DD0000296840F951FE90199838883828193810C
:100DE0009B838A83F0E0E0E012968D919C911397AB
:100DF0000097B9F52D913C911197CD010296820F84
:100E0000931F20918703309188032817390739F6FB
:100E1000309751F510928A0310928903B09388039A
:100E2000A0938703BCCFD383C28340815181840FB9
:100E3000951FC817D90761F44E5F5F4F888199816C
:100E4000480F591F518340838A819B8193838283FA
:100E50002115310509F0B0CFF0938A03E09389039F
:100E60009ECFFD01DC01C0CF13821282D7CFB0E04C
:100E7000A0E0EDE3F7E00C94C3058C01009751F47A
:100E8000CB010E9412068C01C801CDB7DEB7E0E1AC
:100E90000C94DF05FC01E60FF71F9C01225031097D
:100EA000E217F30708F49DC0D901CD91DC911197A9
:100EB000C617D70798F0C530D10530F3CE01049797
:100EC0008617970708F3C61BD70B2297C193D193B8
:100ED0006D937C93CF010E94AE06D6CF5B01AC1A16
:100EE000BD0A4C018C0E9D1EA0918903B0918A030E
:100EF000512C412CF12CE12C109731F58091870376
:100F0000909188038815990509F05CC0461657062C
:100F100008F058C08091000190910101009741F4C0
:100F20008DB79EB74091040150910501841B950B2C
:100F3000E817F90708F055C0F0938803E09387039A
:100F4000F90171836083A0CF8D919C9111971296C6
:100F50006C90129713967C901397A815B90559F5C4
:100F60006C0142E0C40ED11CCA14DB0420F1AC01B8
:100F70004A195B09DA011296159780F06282738232
:100F800051834083D9016D937C93E114F10471F096
:100F9000D7011396FC93EE93129776CF22968C0F7F
:100FA0009D1FF90191838083F301EFCFF0938A03B2
:100FB000E093890369CF4816590608F42C017D0196
:100FC000D3019ACFCB010E9412067C01009749F011
:100FD000AE01B8010E94F407C8010E94AE06870165
:100FE00053CF10E000E050CFFB01DC0102C00190C4
:100FF0000D9241505040D8F70895FB01DC0101905B
:0C1000000D920020E1F70895F894FFCF56
:10100C0000008B03800000000000EB005F008C00F0
:10101C003801BD009B00AF000D0A004D6F746F725C
:10102C0020546573742050726F6772616D20537415
:10103C00617274696E67004C6566743A20002046D4
:10104C00726F6E743A20002052696768743A2000FF
:10105C004D6F76696E6720666F72776172642028B7
:10106C004E4F524D414C20737065656429004D6F95
:10107C0076696E6720666F72776172642028534CB4
:10108C004F5720737065656429004D6F76696E67E4
:10109C00206261636B7761726420284E4F524D4120
:1010AC004C20737065656429004D6F76696E6720FE
:1010BC006261636B776172642028534C4F572073C5
:1010CC007065656429005475726E696E672072696B
:1010DC0067687420284E4F524D414C2073706565E3
:1010EC006429005475726E696E6720726967687442
:1010FC002028534C4F572073706565642900547534
:10110C00726E696E67206C65667420284E4F524D66
:10111C00414C20737065656429005475726E696E5C
:10112C0067206C6566742028534C4F57207370658C
:10113C0065642900526F746174696E672072696707
:10114C00687420284E4F524D414C20737065656475
:10115C002900526F746174696E67207269676874D4
:10116C002028534C4F572073706565642900526FCB
:10117C00746174696E67206C65667420284E4F52DA
:10118C004D414C2073706565642900526F74617415
:10119C00696E67206C6566742028534C4F5720731A
:1011AC00706565642900416C6C206D6F76656D65AA
:1011BC006E7420746573747320636F6D706C6574DA
:1011CC0065642E2057616974696E672035207365DC
:1011DC00636F6E6473206265666F726520726570F2
:0A11EC00656174696E672E2E2E00F7
:00000001FF
