:020000040000FA
:100000000C9435000C945D000C945D000C945D0024
:100010000C945D000C945D000C945D000C945D00EC
:100020000C945D000C945D000C945D000C945D00DC
:100030000C945D000C945D000C945D000C945D00CC
:100040000C945D000C945D000C94A5020C947F024E
:100050000C945D000C945D000C945D000C945D00AC
:100060000C945D000C945D00D70211241FBECFEFED
:10007000D8E0DEBFCDBF21E0A4E3B1E001C01D9216
:10008000A53DB207E1F711E0A0E0B1E0E0EAFCE055
:1000900002C005900D92A433B107D9F710E0C5E373
:1000A000D0E004C02197FE010E945604C433D1075A
:1000B000C9F70E9404030C944E060C940000AF9202
:1000C000BF92CF92DF92EF92FF920F931F93CF9345
:1000D000DF936C017B018B01040F151FEB015E01A7
:1000E000AE18BF08C017D10759F06991D601ED913C
:1000F000FC910190F081E02DC6010995892B79F7DB
:10010000C501DF91CF911F910F91FF90EF90DF908C
:10011000CF90BF90AF900895FC01538D448D252F53
:1001200030E0842F90E0821B930B541710F0CF9691
:10013000089501970895FC01918D828D981761F0C3
:10014000A28DAE0FBF2FB11D5D968C91928D9F5FDA
:100150009F73928F90E008958FEF9FEF0895FC01B9
:10016000918D828D981731F0828DE80FF11D858D6C
:1001700090E008958FEF9FEF0895FC01918D228DFF
:10018000892F90E0805C9F4F821B91098F73992784
:100190000895FC01A48DA80FB92FB11DA35ABF4F1C
:1001A0002C91848D90E001968F739927848FA68976
:1001B000B7892C93A089B1898C91837080648C93CA
:1001C000938D848D981306C00288F389E02D808179
:1001D0008F7D80830895EF92FF920F931F93CF93AB
:1001E000DF93EC0181E0888F9B8D8C8D98131AC072
:1001F000E889F989808185FF15C09FB7F894EE8959
:10020000FF896083E889F9898081837080648083B5
:100210009FBF81E090E0DF91CF911F910F91FF9000
:10022000EF900895F62E0B8D10E00F5F1F4F0F73A8
:100230001127E02E8C8D8E110CC00FB607FCFACF63
:10024000E889F989808185FFF5CFCE010E94C90038
:10025000F1CFEB8DEC0FFD2FF11DE35AFF4FF08234
:100260009FB7F8940B8FEA89FB8980818062CFCF9A
:10027000CF93DF93EC01888D8823B9F0AA89BB89DD
:10028000E889F9898C9185FD03C0808186FD0DC0C8
:100290000FB607FCF7CF8C9185FFF2CF808185FFE9
:1002A000EDCFCE010E94C900E9CFDF91CF91089533
:1002B0000F931F93CF93DF93EC018881998100976F
:1002C00059F02A813B812617370730F081E0DF9112
:1002D000CF911F910F9108958B016F5F7F4F0E9407
:1002E0008105009759F0998388831B830A832C81A9
:1002F0003D81232B59F7FC011082E8CF80E0E7CF46
:10030000EF92FF920F931F93CF93DF9361157105C7
:1003100041F480E0DF91CF911F910F91FF90EF901A
:10032000089541155105B1F07B01EC010C811D814F
:10033000040F151FB8010E945801882351F328812A
:1003400039818C819D81B701820F931F0E944706DE
:100350001D830C8381E0DECFCF93DF93EC01888196
:100360009981009711F00E94F804198218821D8269
:100370001C821B821A82DF91CF910895CF92DF9267
:10038000EF92FF920F931F93CF93DF93CDB7DEB71A
:1003900061970FB6F894DEBF0FBECDBF8C01CB01C5
:1003A000F8011182108213821282158214824AE0AF
:1003B0009E012F5F3F4F6901B9010E94E103F601E1
:1003C00001900020E9F731977F01EC18FD08B70193
:1003D000C8010E945801811112C0C8010E94AC01DD
:1003E00061960FB6F894DEBF0FBECDBFDF91CF91FF
:1003F0001F910F91FF90EF90DF90CF900895F8013B
:10040000F582E482B601808191810E944706E8CF9F
:10041000CF93DF93EC01FB014481558160817181B1
:100420000E948001811103C0CE010E94AC01CE0167
:10043000DF91CF910895FC0180819181009711F0A7
:100440000C94F804089538B141E050E0FA0102C07C
:10045000EE0FFF1F8A95E2F7CF012E2F2095322352
:1004600038B9FAE0FA95F1F700C098B1982B98B92D
:1004700035E33A95F1F7000088B1822388B91092EC
:100480008500109284009A0102C0220F331F6A95E2
:10049000E2F786B190E082239323892B51F4809177
:1004A00084009091850082369A4E98F390E080E027
:1004B000089540918400509185005695479586B1E6
:1004C00090E082239323892B61F0809184009091A6
:1004D000850096958795841B950B8133954778F316
:1004E000E5CF809184009091850096958795841B37
:1004F000950B67E370E00E944204CB0108951F92C0
:100500000F920FB60F9211242F933F934F935F9347
:100510006F937F938F939F93AF93BF93EF93FF93CB
:1005200084E391E00E94C900FF91EF91BF91AF91E8
:100530009F918F917F916F915F914F913F912F91FB
:100540000F900FBE0F901F9018951F920F920FB62D
:100550000F9211242F938F939F93EF93FF93E0912A
:100560004401F09145018081E0914A01F0914B01F5
:1005700082FD1BC0908180914D018F5F8F73209110
:100580004E01821741F0E0914D01F0E0EC5CFE4F2E
:10059000958F80934D01FF91EF919F918F912F91B6
:1005A0000F900FBE0F901F9018958081F4CFE4E359
:1005B000F1E01382128288EE93E0A0E0B0E0848341
:1005C0009583A683B7838AE091E09183808385EC4D
:1005D00090E09587848784EC90E09787868780EC0D
:1005E00090E0918B808B81EC90E0938B828B82ECFE
:1005F00090E0958B848B86EC90E0978B868B118EA8
:10060000128E138E148E0895CF93DF93CDB7DEB77D
:1006100068970FB6F894DEBF0FBECDBFE0914401DE
:10062000F091450192E09083E0914001F091410109
:100630001082E0914201F09143018FEC808310928F
:100640004C01E0914801F091490186E08083E091FE
:100650004601F0914701808180618083E0914601ED
:10066000F0914701808188608083E0914601F0919C
:100670004701808180688083E0914601F0914701C5
:1006800080818F7D8083389A3A9A3C9A39983B983A
:100690003D981092800090938100109285001092F6
:1006A000840061E080E00E9423028C0163E082E02C
:1006B0000E9423027C0165E084E00E942302BC01C9
:1006C000CE0143960E94BE01B701CE010D960E9455
:1006D000BE01B801CE0107960E94BE011A8219829E
:1006E0001C821B821E821D8266E070E0CE01019694
:1006F0000E94580181115AC0CE0101960E94AC019E
:10070000BE01695F7F4FCE0101960E9408028C01F5
:1007100048E050E06FE171E00E948001811103C068
:10072000C8010E94AC01BE01635F7F4FC8010E94F7
:1007300008028C0148E050E068E271E00E9480010C
:10074000811103C0C8010E94AC01BE016D5E7F4FE4
:10075000C8010E940802FC014481558160817181B9
:1007600084E391E00E945F0042E050E061E371E0C9
:1007700084E391E00E945F00CE0101960E941B027B
:10078000CE0107960E941B02CE010D960E941B020D
:10079000CE0143960E941B02FFEF29E688E1F1504B
:1007A00020408040E1F700C000007BCF86E090E071
:1007B0009E838D8368E171E089819A810E9447065A
:1007C0009FCFBB27FB015527AA27880F991FAA1F78
:1007D000A41710F0A41B83955051B9F7A05DAA335C
:1007E00008F0A95DA193009779F7B111B193119227
:1007F000CB010C94FB03DC01FC01672F7191772383
:10080000E1F7329704C07C916D9370836291AE17CB
:10081000BF07C8F308952F923F924F925F926F9255
:100820007F928F929F92AF92BF92CF92DF92EF9280
:10083000FF920F931F93CF93DF93CDB7DEB7CA1B01
:10084000DB0B0FB6F894DEBF0FBECDBF09942A882C
:10085000398848885F846E847D848C849B84AA84D4
:10086000B984C884DF80EE80FD800C811B81AA8161
:10087000B981CE0FD11D0FB6F894DEBF0FBECDBF2C
:10088000ED010895AA1BBB1B51E107C0AA1FBB1FA6
:10089000A617B70710F0A61BB70B881F991F5A950C
:1008A000A9F780959095BC01CD010895EE0FFF1F2B
:1008B0000590F491E02D09940F931F93CF93DF934C
:1008C0008230910510F482E090E0E091D301F09144
:1008D000D40130E020E0B0E0A0E0309799F4211599
:1008E000310509F44AC0281B390B24303105D8F5ED
:1008F0008A819B816115710589F1FB019383828354
:10090000FE0111C0408151810281138148175907AE
:10091000E0F04817590799F4109761F012960C937C
:10092000129713961C933296CF01DF91CF911F91AE
:100930000F9108950093D3011093D401F4CF2115A2
:10094000310551F04217530738F0A901DB019A0134
:10095000BD01DF01F801C1CFEF01F9CF9093D401C0
:100960008093D301CDCFFE01E20FF31F81939193CA
:100970002250310939832883D7CF2091D10130917A
:10098000D201232B41F420910201309103013093D5
:10099000D2012093D1012091000130910101211554
:1009A000310541F42DB73EB7409104015091050146
:1009B000241B350BE091D101F091D201E217F3072E
:1009C000A0F42E1B3F0B2817390778F0AC014E5FBF
:1009D0005F4F2417350748F04E0F5F1F5093D20129
:1009E0004093D101819391939FCFF0E0E0E09CCFC1
:1009F000CF93DF930097E9F0FC01329713821282C4
:100A0000A091D301B091D401ED0130E020E0109726
:100A1000A1F420813181820F931F2091D101309167
:100A2000D2012817390709F061C0F093D201E09391
:100A3000D101DF91CF910895EA01CE17DF07E8F5E4
:100A40004A815B819E0141155105B1F7E901FB83A4
:100A5000EA8349915991C40FD51FEC17FD0761F442
:100A6000808191810296840F951FE9019983888383
:100A7000828193819B838A83F0E0E0E012968D91DE
:100A80009C9113970097B9F52D913C911197CD0149
:100A90000296820F931F2091D1013091D201281725
:100AA000390739F6309751F51092D4011092D301DD
:100AB000B093D201A093D101BCCFD383C283408134
:100AC0005181840F951FC817D90761F44E5F5F4F9E
:100AD00088819981480F591F518340838A819B8166
:100AE000938382832115310509F0B0CFF093D401AF
:100AF000E093D3019ECFFD01DC01C0CF13821282AF
:100B0000D7CFB0E0A0E0E7E8F5E00C940D048C014D
:100B1000009751F4CB010E945C048C01C801CDB751
:100B2000DEB7E0E10C942904FC01E60FF71F9C01FD
:100B300022503109E217F30708F49DC0D901CD9185
:100B4000DC911197C617D70798F0C530D10530F35F
:100B5000CE0104978617970708F3C61BD70B229779
:100B6000C193D1936D937C93CF010E94F804D6CFAB
:100B70005B01AC1ABD0A4C018C0E9D1EA091D301E5
:100B8000B091D401512C412CF12CE12C109731F56E
:100B90008091D1019091D2018815990509F05CC02E
:100BA0004616570608F058C0809100019091010147
:100BB000009741F48DB79EB7409104015091050113
:100BC000841B950BE817F90708F055C0F093D20184
:100BD000E093D101F90171836083A0CF8D919C9145
:100BE000119712966C90129713967C901397A815F4
:100BF000B90559F56C0142E0C40ED11CCA14DB04DE
:100C000020F1AC014A195B09DA011296159780F0C0
:100C10006282738251834083D9016D937C93E11486
:100C2000F10471F0D7011396FC93EE93129776CFEF
:100C300022968C0F9D1FF90191838083F301EFCFE2
:100C4000F093D401E093D30169CF4816590608F414
:100C50002C017D01D3019ACFCB010E945C047C0161
:100C6000009749F0AE01B8010E943E06C8010E94FB
:100C7000F804870153CF10E000E050CFFB01DC0106
:100C800002C001900D9241505040D8F70895FB01E9
:100C9000DC0101900D920020E1F70895F894FFCF58
:100CA0000000D501800000000000EB005F008C0018
:100CB0003801BD009B00AF004C6566743A200020EF
:100CC00046726F6E743A20002052696768743A2049
:040CD000000D0A0009
:107E0000112484B714BE81FFF0D085E080938100F7
:107E100082E08093C00088E18093C10086E0809377
:107E2000C20080E18093C4008EE0C9D0259A86E02C
:107E300020E33CEF91E0309385002093840096BBD3
:107E4000B09BFECF1D9AA8958150A9F7CC24DD24C4
:107E500088248394B5E0AB2EA1E19A2EF3E0BF2EE7
:107E6000A2D0813461F49FD0082FAFD0023811F036
:107E7000013811F484E001C083E08DD089C08234E0
:107E800011F484E103C0853419F485E0A6D080C0E4
:107E9000853579F488D0E82EFF2485D0082F10E0AE
:107EA000102F00270E291F29000F111F8ED06801E7
:107EB0006FC0863521F484E090D080E0DECF843638
:107EC00009F040C070D06FD0082F6DD080E0C81688
:107ED00080E7D80618F4F601B7BEE895C0E0D1E017
:107EE00062D089930C17E1F7F0E0CF16F0E7DF06D8
:107EF00018F0F601B7BEE89568D007B600FCFDCFD4
:107F0000A601A0E0B1E02C9130E011968C91119780
:107F100090E0982F8827822B932B1296FA010C0160
:107F200087BEE89511244E5F5F4FF1E0A038BF0790
:107F300051F7F601A7BEE89507B600FCFDCF97BE46
:107F4000E89526C08437B1F42ED02DD0F82E2BD052
:107F50003CD0F601EF2C8F010F5F1F4F84911BD097
:107F6000EA94F801C1F70894C11CD11CFA94CF0C13
:107F7000D11C0EC0853739F428D08EE10CD085E9AC
:107F80000AD08FE07ACF813511F488E018D01DD067
:107F900080E101D065CF982F8091C00085FFFCCF94
:107FA0009093C60008958091C00087FFFCCF809118
:107FB000C00084FD01C0A8958091C6000895E0E648
:107FC000F0E098E1908380830895EDDF803219F02E
:107FD00088E0F5DFFFCF84E1DECF1F93182FE3DFCA
:107FE0001150E9F7F2DF1F91089580E0E8DFEE27F6
:047FF000FF270994CA
:027FFE00040479
:00000001FF
